{
  "contractName": "OptionsStrategies",
  "abi": [
    {
      "inputs": [
        {
          "internalType": "address",
          "name": "_OpynV2AddressBook",
          "type": "address"
        }
      ],
      "stateMutability": "nonpayable",
      "type": "constructor"
    },
    {
      "inputs": [],
      "name": "OpynV2AddressBook",
      "outputs": [
        {
          "internalType": "contract IAddressBook",
          "name": "",
          "type": "address"
        }
      ],
      "stateMutability": "view",
      "type": "function",
      "constant": true
    },
    {
      "inputs": [],
      "name": "getOpynV2Controller",
      "outputs": [
        {
          "internalType": "address",
          "name": "",
          "type": "address"
        }
      ],
      "stateMutability": "view",
      "type": "function",
      "constant": true
    }
  ],
  "bytecode": "0x60a060405234801561001057600080fd5b506040516102293803806102298339818101604052602081101561003357600080fd5b5051606081901b6001600160601b0319166080526001600160a01b03166101bf61006a6000398060695280609052506101bf6000f3fe608060405234801561001057600080fd5b50600436106100365760003560e01c8063454b07f91461003b578063b2e38f161461005f575b600080fd5b610043610067565b604080516001600160a01b039092168252519081900360200190f35b61004361008b565b7f000000000000000000000000000000000000000000000000000000000000000081565b6000807f00000000000000000000000000000000000000000000000000000000000000006001600160a01b0316633018205f6040518163ffffffff1660e01b815260040160206040518083038186803b1580156100e757600080fd5b505afa1580156100fb573d6000803e3d6000fd5b505050506040513d602081101561011157600080fd5b505160408051635c60da1b60e01b815290519192506001600160a01b03831691635c60da1b91600480820192602092909190829003018186803b15801561015757600080fd5b505afa15801561016b573d6000803e3d6000fd5b505050506040513d602081101561018157600080fd5b50519150509056fea26469706673582212208bf454b6e4763ab8ae0cab2b442d7802dbd5c4595ed71e065f14cf6c97933eee64736f6c63430007030033",
  "immutableReferences": {
    "55": [
      {
        "length": 32,
        "start": 105
      },
      {
        "length": 32,
        "start": 144
      }
    ]
  },
  "source": "// SPDX-License-Identifier: MIT\npragma solidity ^0.7.0;\n\nimport \"./OpynV2Helpers.sol\";\n\ncontract OptionsStrategies is OpynV2Helpers {\n    constructor(address _OpynV2AddressBook) OpynV2Helpers(_OpynV2AddressBook) {}\n}\n",
  "sourcePath": "/home/andre/src/repos/github/PermanentLoss/permanentloss/contracts/contracts/OptionsStrategies.sol",
  "compiler": {
    "name": "solc",
    "version": "0.7.3+commit.9bfce1f6.Emscripten.clang"
  },
  "schemaVersion": "3.3.0",
  "updatedAt": "2020-10-12T21:29:21.226Z",
  "networkType": "ethereum",
  "devdoc": {
    "kind": "dev",
    "methods": {
      "getOpynV2Controller()": {
        "details": "Opyn v2 uses proxies to deploy upgradable contracts and this is why we can not return OpynV2AddressBook.getController() directly",
        "returns": {
          "_0": "Address of the current Controller implementation contract"
        }
      }
    },
    "version": 1
  },
  "userdoc": {
    "kind": "user",
    "methods": {
      "OpynV2AddressBook()": {
        "notice": "Provides addresses for all modules in Opyn v2"
      },
      "getOpynV2Controller()": {
        "notice": "Get the address of the contract that controls the Gamma Protocol (Opyn v2) and the interaction of all sub contracts in the current network"
      }
    },
    "version": 1
  }
}