{
  "contractName": "OptionsStrategies",
  "abi": [
    {
      "inputs": [
        {
          "internalType": "address",
          "name": "_OpynV2AddressBook",
          "type": "address"
        }
      ],
      "stateMutability": "nonpayable",
      "type": "constructor"
    },
    {
      "inputs": [],
      "name": "OpynV2AddressBook",
      "outputs": [
        {
          "internalType": "contract IAddressBook",
          "name": "",
          "type": "address"
        }
      ],
      "stateMutability": "view",
      "type": "function"
    }
  ],
  "bytecode": "0x60a060405234801561001057600080fd5b5060405161010d38038061010d8339818101604052602081101561003357600080fd5b5051606081901b6001600160601b0319166080526001600160a01b031660a9610064600039806051525060a96000f3fe6080604052348015600f57600080fd5b506004361060285760003560e01c8063454b07f914602d575b600080fd5b6033604f565b604080516001600160a01b039092168252519081900360200190f35b7f00000000000000000000000000000000000000000000000000000000000000008156fea2646970667358221220d12fab013a28228f0882b7a7fcc856fe1b8ce08bf82e6a6fa5f414694353ed7264736f6c63430007030033",
  "immutableReferences": {
    "54": [
      {
        "length": 32,
        "start": 81
      }
    ]
  },
  "source": "// SPDX-License-Identifier: MIT\npragma solidity ^0.7.0;\n\nimport \"./OpynV2Helpers.sol\";\n\ncontract OptionsStrategies is OpynV2Helpers {\n    constructor(address _OpynV2AddressBook) OpynV2Helpers(_OpynV2AddressBook) {}\n}\n",
  "sourcePath": "/home/andre/src/repos/github/PermanentLoss/permanentloss/contracts/contracts/OptionsStrategies.sol",
  "compiler": {
    "name": "solc",
    "version": "0.7.3+commit.9bfce1f6.Emscripten.clang"
  },
  "schemaVersion": "3.3.0",
  "updatedAt": "2020-10-16T21:56:52.600Z",
  "devdoc": {
    "kind": "dev",
    "methods": {},
    "version": 1
  },
  "userdoc": {
    "kind": "user",
    "methods": {
      "OpynV2AddressBook()": {
        "notice": "Provides addresses for all modules in Opyn v2"
      }
    },
    "version": 1
  }
}