{
  "contractName": "OpynV2Helpers",
  "abi": [
    {
      "inputs": [
        {
          "internalType": "address",
          "name": "_OpynV2AddressBook",
          "type": "address"
        }
      ],
      "stateMutability": "nonpayable",
      "type": "constructor"
    },
    {
      "inputs": [],
      "name": "OpynV2AddressBook",
      "outputs": [
        {
          "internalType": "contract IAddressBook",
          "name": "",
          "type": "address"
        }
      ],
      "stateMutability": "view",
      "type": "function",
      "constant": true
    },
    {
      "inputs": [],
      "name": "getOpynV2Controller",
      "outputs": [
        {
          "internalType": "address",
          "name": "",
          "type": "address"
        }
      ],
      "stateMutability": "view",
      "type": "function",
      "constant": true
    }
  ],
  "bytecode": "0x60a060405234801561001057600080fd5b506040516102293803806102298339818101604052602081101561003357600080fd5b5051606081901b6001600160601b0319166080526001600160a01b03166101bf61006a6000398060695280609052506101bf6000f3fe608060405234801561001057600080fd5b50600436106100365760003560e01c8063454b07f91461003b578063b2e38f161461005f575b600080fd5b610043610067565b604080516001600160a01b039092168252519081900360200190f35b61004361008b565b7f000000000000000000000000000000000000000000000000000000000000000081565b6000807f00000000000000000000000000000000000000000000000000000000000000006001600160a01b0316633018205f6040518163ffffffff1660e01b815260040160206040518083038186803b1580156100e757600080fd5b505afa1580156100fb573d6000803e3d6000fd5b505050506040513d602081101561011157600080fd5b505160408051635c60da1b60e01b815290519192506001600160a01b03831691635c60da1b91600480820192602092909190829003018186803b15801561015757600080fd5b505afa15801561016b573d6000803e3d6000fd5b505050506040513d602081101561018157600080fd5b50519150509056fea2646970667358221220dc23ed9d9233bd47d09d9cf854eb34b341e6efc40cc6d7ec10e2cfe9fa6d94f964736f6c63430007030033",
  "immutableReferences": {
    "38": [
      {
        "length": 32,
        "start": 105
      },
      {
        "length": 32,
        "start": 144
      }
    ]
  },
  "source": "// SPDX-License-Identifier: MIT\npragma solidity ^0.7.0;\n\nimport \"./interfaces/IAddressBook.sol\";\nimport \"./interfaces/IOwnedUpgradeabilityProxy.sol\";\n\ncontract OpynV2Helpers {\n    IAddressBook public immutable OpynV2AddressBook;\n\n    constructor(address _OpynV2AddressBook) {\n        OpynV2AddressBook = IAddressBook(_OpynV2AddressBook);\n    }\n\n    function getOpynV2Controller() public view returns (address) {\n        IOwnedUpgradeabilityProxy _ControllerProxy = IOwnedUpgradeabilityProxy(\n            payable(OpynV2AddressBook.getController())\n        );\n\n        return _ControllerProxy.implementation();\n    }\n}\n",
  "sourcePath": "/home/andre/src/repos/github/PermanentLoss/permanentloss/contracts/contracts/OpynV2Helpers.sol",
  "compiler": {
    "name": "solc",
    "version": "0.7.3+commit.9bfce1f6.Emscripten.clang"
  },
  "schemaVersion": "3.3.0",
  "updatedAt": "2020-10-11T20:14:45.534Z",
  "networkType": "ethereum",
  "devdoc": {
    "kind": "dev",
    "methods": {},
    "version": 1
  },
  "userdoc": {
    "kind": "user",
    "methods": {},
    "version": 1
  }
}