{
  "contractName": "OpynV2Helpers",
  "abi": [
    {
      "inputs": [
        {
          "internalType": "address",
          "name": "_OpynV2AddressBook",
          "type": "address"
        }
      ],
      "stateMutability": "nonpayable",
      "type": "constructor"
    },
    {
      "inputs": [],
      "name": "OpynV2AddressBook",
      "outputs": [
        {
          "internalType": "contract IAddressBook",
          "name": "",
          "type": "address"
        }
      ],
      "stateMutability": "view",
      "type": "function"
    }
  ],
  "bytecode": "0x608060405234801561001057600080fd5b506040516100f83803806100f88339818101604052602081101561003357600080fd5b5051600080546001600160a01b039092166001600160a01b03199092169190911790556094806100646000396000f3fe6080604052348015600f57600080fd5b506004361060285760003560e01c8063454b07f914602d575b600080fd5b6033604f565b604080516001600160a01b039092168252519081900360200190f35b6000546001600160a01b03168156fea264697066735822122079263cfca1dd6bbf0ec5a1444f0d5b75df1dbefb5c4f130254066810f0e9c2c064736f6c63430007040033",
  "immutableReferences": {},
  "source": "// SPDX-License-Identifier: MIT\npragma solidity ^0.7.0;\n\nimport \"./interfaces/IAddressBook.sol\";\n\n/// @title Opyn v2 helper functions\n/// @author The PermanentLoss contributors\n/// @notice Helper functions to easily interact with the Opyn v2 margin protocol\ncontract OpynV2Helpers {\n    /// @notice Provides addresses for all modules in Opyn v2\n    IAddressBook public OpynV2AddressBook;\n\n    /// @notice Create a new contract that provides the Opyn v2 helper functions\n    /// @param _OpynV2AddressBook The address of the AddressBook contract\n    /// on the current network\n    constructor(address _OpynV2AddressBook) {\n        OpynV2AddressBook = IAddressBook(_OpynV2AddressBook);\n    }\n}\n",
  "sourcePath": "/home/andre/src/repos/github/PermanentLoss/permanentloss/contracts/contracts/OpynV2Helpers.sol",
  "compiler": {
    "name": "solc",
    "version": "0.7.4+commit.3f05b770.Emscripten.clang"
  },
  "schemaVersion": "3.3.0",
  "updatedAt": "2020-10-20T05:34:42.979Z",
  "devdoc": {
    "author": "The PermanentLoss contributors",
    "kind": "dev",
    "methods": {
      "constructor": {
        "params": {
          "_OpynV2AddressBook": "The address of the AddressBook contract on the current network"
        }
      }
    },
    "title": "Opyn v2 helper functions",
    "version": 1
  },
  "userdoc": {
    "kind": "user",
    "methods": {
      "OpynV2AddressBook()": {
        "notice": "Provides addresses for all modules in Opyn v2"
      },
      "constructor": {
        "notice": "Create a new contract that provides the Opyn v2 helper functions"
      }
    },
    "notice": "Helper functions to easily interact with the Opyn v2 margin protocol",
    "version": 1
  }
}