{
  "contractName": "VaultsManager",
  "abi": [
    {
      "inputs": [
        {
          "internalType": "address",
          "name": "_OpynV2AddressBook",
          "type": "address"
        },
        {
          "internalType": "address[3]",
          "name": "_validCollateral",
          "type": "address[3]"
        }
      ],
      "stateMutability": "nonpayable",
      "type": "constructor"
    },
    {
      "anonymous": false,
      "inputs": [
        {
          "indexed": false,
          "internalType": "address",
          "name": "accountOwner",
          "type": "address"
        },
        {
          "indexed": false,
          "internalType": "address",
          "name": "collateral",
          "type": "address"
        },
        {
          "indexed": false,
          "internalType": "uint256",
          "name": "vaultId",
          "type": "uint256"
        },
        {
          "indexed": false,
          "internalType": "uint256",
          "name": "amount",
          "type": "uint256"
        }
      ],
      "name": "CollateralDeposited",
      "type": "event"
    },
    {
      "anonymous": false,
      "inputs": [
        {
          "indexed": false,
          "internalType": "address",
          "name": "accountOwner",
          "type": "address"
        },
        {
          "indexed": false,
          "internalType": "address",
          "name": "collateral",
          "type": "address"
        },
        {
          "indexed": false,
          "internalType": "uint256",
          "name": "vaultId",
          "type": "uint256"
        },
        {
          "indexed": false,
          "internalType": "uint256",
          "name": "amount",
          "type": "uint256"
        }
      ],
      "name": "CollateralWithdrawn",
      "type": "event"
    },
    {
      "anonymous": false,
      "inputs": [
        {
          "indexed": false,
          "internalType": "address",
          "name": "accountOwner",
          "type": "address"
        },
        {
          "indexed": false,
          "internalType": "address",
          "name": "collateral",
          "type": "address"
        },
        {
          "indexed": false,
          "internalType": "uint256",
          "name": "vaultId",
          "type": "uint256"
        },
        {
          "indexed": false,
          "internalType": "uint256",
          "name": "amount",
          "type": "uint256"
        }
      ],
      "name": "CollateralizedVaultOpened",
      "type": "event"
    },
    {
      "anonymous": false,
      "inputs": [
        {
          "indexed": false,
          "internalType": "address",
          "name": "newOtokenAddress",
          "type": "address"
        }
      ],
      "name": "NewOtokenCreated",
      "type": "event"
    },
    {
      "inputs": [],
      "name": "OpynV2AddressBook",
      "outputs": [
        {
          "internalType": "contract IAddressBook",
          "name": "",
          "type": "address"
        }
      ],
      "stateMutability": "view",
      "type": "function"
    },
    {
      "inputs": [],
      "name": "controller",
      "outputs": [
        {
          "internalType": "contract IController",
          "name": "",
          "type": "address"
        }
      ],
      "stateMutability": "view",
      "type": "function"
    },
    {
      "inputs": [],
      "name": "otokenFactory",
      "outputs": [
        {
          "internalType": "contract IOtokenFactory",
          "name": "",
          "type": "address"
        }
      ],
      "stateMutability": "view",
      "type": "function"
    },
    {
      "inputs": [
        {
          "internalType": "uint256",
          "name": "",
          "type": "uint256"
        },
        {
          "internalType": "address",
          "name": "",
          "type": "address"
        },
        {
          "internalType": "uint256",
          "name": "",
          "type": "uint256"
        }
      ],
      "name": "ownerVaultIdBalance",
      "outputs": [
        {
          "internalType": "uint256",
          "name": "",
          "type": "uint256"
        }
      ],
      "stateMutability": "view",
      "type": "function"
    },
    {
      "inputs": [
        {
          "internalType": "uint256",
          "name": "",
          "type": "uint256"
        }
      ],
      "name": "validCollateral",
      "outputs": [
        {
          "internalType": "address",
          "name": "",
          "type": "address"
        }
      ],
      "stateMutability": "view",
      "type": "function"
    },
    {
      "inputs": [
        {
          "internalType": "enum VaultsManager.Collateral",
          "name": "_assetToDeposit",
          "type": "uint8"
        },
        {
          "internalType": "uint256",
          "name": "_amount",
          "type": "uint256"
        }
      ],
      "name": "openCollateralizedVault",
      "outputs": [],
      "stateMutability": "nonpayable",
      "type": "function"
    },
    {
      "inputs": [
        {
          "internalType": "enum VaultsManager.Collateral",
          "name": "_collateralToDeposit",
          "type": "uint8"
        },
        {
          "internalType": "uint256",
          "name": "_vaultId",
          "type": "uint256"
        },
        {
          "internalType": "uint256",
          "name": "_amount",
          "type": "uint256"
        }
      ],
      "name": "depositCollateral",
      "outputs": [],
      "stateMutability": "nonpayable",
      "type": "function"
    },
    {
      "inputs": [
        {
          "internalType": "enum VaultsManager.Collateral",
          "name": "_collateralToWithdraw",
          "type": "uint8"
        },
        {
          "internalType": "uint256",
          "name": "_vaultId",
          "type": "uint256"
        },
        {
          "internalType": "uint256",
          "name": "_amount",
          "type": "uint256"
        }
      ],
      "name": "withdrawCollateral",
      "outputs": [],
      "stateMutability": "nonpayable",
      "type": "function"
    },
    {
      "inputs": [
        {
          "internalType": "address",
          "name": "_underlyingAsset",
          "type": "address"
        },
        {
          "internalType": "address",
          "name": "_strikeAsset",
          "type": "address"
        },
        {
          "internalType": "enum VaultsManager.Collateral",
          "name": "_collateralAsset",
          "type": "uint8"
        },
        {
          "internalType": "uint256",
          "name": "_strikePrice",
          "type": "uint256"
        },
        {
          "internalType": "uint256",
          "name": "_expiry",
          "type": "uint256"
        },
        {
          "internalType": "bool",
          "name": "_isPut",
          "type": "bool"
        }
      ],
      "name": "createOtoken",
      "outputs": [
        {
          "internalType": "address",
          "name": "",
          "type": "address"
        }
      ],
      "stateMutability": "nonpayable",
      "type": "function"
    }
  ],
  "bytecode": "0x60806040523480156200001157600080fd5b506040516200195338038062001953833981016040819052620000349162000467565b600080546001600160a01b0319166001600160a01b0384161790556200005e6001826003620003b2565b5060008054906101000a90046001600160a01b03166001600160a01b0316633018205f6040518163ffffffff1660e01b815260040160206040518083038186803b158015620000ac57600080fd5b505afa158015620000c1573d6000803e3d6000fd5b505050506040513d601f19601f82011682018060405250810190620000e7919062000443565b600480546001600160a01b0319166001600160a01b0392831617815560005460408051631ffaf0db60e01b815290519190931692631ffaf0db9281810192602092909190829003018186803b1580156200014057600080fd5b505afa15801562000155573d6000803e3d6000fd5b505050506040513d601f19601f820116820180604052508101906200017b919062000443565b600580546001600160a01b0319166001600160a01b039283161790556000805460408051633aa431a160e11b8152905192939190911691637548634291600480820192602092909190829003018186803b158015620001d957600080fd5b505afa158015620001ee573d6000803e3d6000fd5b505050506040513d601f19601f8201168201806040525081019062000214919062000443565b905060008080805b60038160ff161015620003a55760018160ff16600381106200023a57fe5b015460405163095ea7b360e01b81526001600160a01b039091169450849063095ea7b3906200027190889060009060040162000527565b602060405180830381600087803b1580156200028c57600080fd5b505af1158015620002a1573d6000803e3d6000fd5b505050506040513d601f19601f82011682018060405250810190620002c7919062000505565b925082620002f25760405162461bcd60e51b8152600401620002e99062000598565b60405180910390fd5b60405163095ea7b360e01b81526001600160a01b0385169063095ea7b390620003249088906000199060040162000527565b602060405180830381600087803b1580156200033f57600080fd5b505af115801562000354573d6000803e3d6000fd5b505050506040513d601f19601f820116820180604052508101906200037a919062000505565b9150816200039c5760405162461bcd60e51b8152600401620002e99062000540565b6001016200021c565b50505050505050620005e4565b8260038101928215620003fd579160200282015b82811115620003fd57825182546001600160a01b0319166001600160a01b03909116178255602090920191600190910190620003c6565b506200040b9291506200040f565b5090565b5b808211156200040b576000815560010162000410565b80516001600160a01b03811681146200043e57600080fd5b919050565b60006020828403121562000455578081fd5b620004608262000426565b9392505050565b600080608083850312156200047a578081fd5b620004858362000426565b9150602084603f85011262000498578182fd5b604051606081016001600160401b0381118282101715620004b557fe5b6040528085830160808701881015620004cc578485fd5b845b6003811015620004f657620004e38262000426565b83529184019190840190600101620004ce565b50505080925050509250929050565b60006020828403121562000517578081fd5b8151801515811462000460578182fd5b6001600160a01b03929092168252602082015260400190565b60208082526043908201526000805160206200193383398151915260408201527f6c6c61746572616c20617070726f766520746f206d6178696d756d2075696e74606082015262191a9b60e91b608082015260a00190565b60208082526035908201526000805160206200193383398151915260408201527f6c6c61746572616c20617070726f766520746f20300000000000000000000000606082015260800190565b61133f80620005f46000396000f3fe608060405234801561001057600080fd5b50600436106100935760003560e01c8063454b07f911610066578063454b07f914610109578063539272b7146101115780638a7ab7b7146101245780638d34a62e1461012c578063f77c47911461013f57610093565b8063085f78e4146100985780632a6e7603146100c157806338410341146100e15780633ff17d4b146100f6575b600080fd5b6100ab6100a6366004610eeb565b610147565b6040516100b891906112b0565b60405180910390f35b6100d46100cf366004610ebb565b610175565b6040516100b89190610f7a565b6100f46100ef366004610e89565b610195565b005b6100f4610104366004610e89565b6103a7565b6100d46104e9565b6100d461011f366004610dd7565b6104f8565b6100d46106d3565b6100f461013a366004610e60565b6106e2565b6100d46109f9565b6006836003811061015757600080fd5b01602090815260009283526040808420909152908252902054905081565b6001816003811061018557600080fd5b01546001600160a01b0316905081565b6101d28160068560028111156101a757fe5b600381106101b157fe5b33600090815291016020908152604080832087845290915290205490610a08565b60068460028111156101e057fe5b600381106101ea57fe5b33600081815291909201602090815260408083208784529091529020919091557f4700a5c58c58ea6536703185e43dae38bfd4158ee5330c70988f02a65562a36e90600185600281111561023a57fe5b6003811061024457fe5b015460405161026192916001600160a01b03169086908690610fcc565b60405180910390a1604080516001808252818301909252606091816020015b610288610d46565b81526020019060019003908161028057905050604080516101008101909152909150806006815230602082015233604082015260600160018660028111156102cc57fe5b600381106102d657fe5b0160009054906101000a90046001600160a01b03166001600160a01b03168152602001848152602001838152602001600081526020016040518060600160405280602a81526020016112e0602a91398152508160008151811061033557fe5b602090810291909101015260048054604051635b0bf86360e11b81526001600160a01b039091169163b617f0c69161036f9185910161102e565b600060405180830381600087803b15801561038957600080fd5b505af115801561039d573d6000803e3d6000fd5b5050505050505050565b6103b18382610a51565b6103ee8160068560028111156103c357fe5b600381106103cd57fe5b33600090815291016020908152604080832087845290915290205490610c55565b60068460028111156103fc57fe5b6003811061040657fe5b33600081815291909201602090815260408083208784529091529020919091557f95d16db8c4932fcf5d6de67364791e7178ec505c7d3829a8b34d18959c01552c90600185600281111561045657fe5b6003811061046057fe5b015460405161047d92916001600160a01b03169086908690610fcc565b60405180910390a1604080516001808252818301909252606091816020015b6104a4610d46565b81526020019060019003908161049c5790505060408051610100810190915290915080600581523060208201819052604082015260600160018660028111156102cc57fe5b6000546001600160a01b031681565b60055460009081906001600160a01b03166311547054898960018a600281111561051e57fe5b6003811061052857fe5b01546040516001600160e01b031960e086901b16815261055c9392916001600160a01b0316908b908b908b90600401610ff5565b60206040518083038186803b15801561057457600080fd5b505afa158015610588573d6000803e3d6000fd5b505050506040513d601f19601f820116820180604052508101906105ac9190610dbb565b6001600160a01b0316146105db5760405162461bcd60e51b81526004016105d290611104565b60405180910390fd5b6005546000906001600160a01b031663c0974630898960018a60028111156105ff57fe5b6003811061060957fe5b01546040516001600160e01b031960e086901b16815261063d9392916001600160a01b0316908b908b908b90600401610ff5565b602060405180830381600087803b15801561065757600080fd5b505af115801561066b573d6000803e3d6000fd5b505050506040513d601f19601f8201168201806040525081019061068f9190610dbb565b90507f744b1d260113cc5cd1259290d9a1d408551621cda392787c8e60ed570d0fc50a816040516106c09190610f7a565b60405180910390a1979650505050505050565b6005546001600160a01b031681565b600480546040805163eab7775b60e01b815290516001600160a01b039092169263eab7775b928282019260209290829003018186803b15801561072457600080fd5b505afa158015610738573d6000803e3d6000fd5b505050506040513d601f19601f8201168201806040525081019061075c9190610e44565b156107795760405162461bcd60e51b81526004016105d290611253565b60048054604051636553690d60e11b81526000926001600160a01b039092169163caa6d21a916107ab91309101610f7a565b60206040518083038186803b1580156107c357600080fd5b505afa1580156107d7573d6000803e3d6000fd5b505050506040513d601f19601f820116820180604052508101906107fb9190610ed3565b600101905061080a8383610a51565b81600684600281111561081957fe5b6003811061082357fe5b33600081815291909201602090815260408083208684529091529020919091557f3bd9dbc69f7d1e4029eed87846c11ea0ff9b48f8e2b38ddee2f6593a2d96024090600185600281111561087357fe5b6003811061087d57fe5b015460405161089a92916001600160a01b03169085908790610fcc565b60405180910390a16040805160028082526060828101909352816020015b6108c0610d46565b8152602001906001900390816108b8579050506040805161010081019091529091508060008152602001306001600160a01b0316815260200160006001600160a01b0316815260200160006001600160a01b0316815260200183815260200160008152602001600081526020016040518060600160405280602a81526020016112e0602a91398152508160008151811061095657fe5b6020908102919091010152604080516101008101909152806005815230602082018190526040820152606001600186600281111561099057fe5b6003811061099a57fe5b0160009054906101000a90046001600160a01b03166001600160a01b03168152602001838152602001848152602001600081526020016040518060600160405280602a81526020016112e0602a91398152508160018151811061033557fe5b6004546001600160a01b031681565b6000610a4a83836040518060400160405280601e81526020017f536166654d6174683a207375627472616374696f6e206f766572666c6f770000815250610caf565b9392505050565b60006001836002811115610a6157fe5b60038110610a6b57fe5b01546040516370a0823160e01b81526001600160a01b039091169150829082906370a0823190610a9f903390600401610f7a565b60206040518083038186803b158015610ab757600080fd5b505afa158015610acb573d6000803e3d6000fd5b505050506040513d601f19601f82011682018060405250810190610aef9190610ed3565b1015610b0d5760405162461bcd60e51b81526004016105d2906111b9565b604051636eb1769f60e11b815282906001600160a01b0383169063dd62ed3e90610b3d9033903090600401610f8e565b60206040518083038186803b158015610b5557600080fd5b505afa158015610b69573d6000803e3d6000fd5b505050506040513d601f19601f82011682018060405250810190610b8d9190610ed3565b1015610bab5760405162461bcd60e51b81526004016105d29061116f565b6040516323b872dd60e01b81526000906001600160a01b038316906323b872dd90610bde90339030908890600401610fa8565b602060405180830381600087803b158015610bf857600080fd5b505af1158015610c0c573d6000803e3d6000fd5b505050506040513d601f19601f82011682018060405250810190610c309190610e44565b905080610c4f5760405162461bcd60e51b81526004016105d290611207565b50505050565b600082820183811015610a4a576040805162461bcd60e51b815260206004820152601b60248201527f536166654d6174683a206164646974696f6e206f766572666c6f770000000000604482015290519081900360640190fd5b60008184841115610d3e5760405162461bcd60e51b81526004018080602001828103825283818151815260200191508051906020019080838360005b83811015610d03578181015183820152602001610ceb565b50505050905090810190601f168015610d305780820380516001836020036101000a031916815260200191505b509250505060405180910390fd5b505050900390565b604080516101008101909152806000815260200160006001600160a01b0316815260200160006001600160a01b0316815260200160006001600160a01b03168152602001600081526020016000815260200160008152602001606081525090565b803560038110610db657600080fd5b919050565b600060208284031215610dcc578081fd5b8151610a4a816112b9565b60008060008060008060c08789031215610def578182fd5b8635610dfa816112b9565b95506020870135610e0a816112b9565b9450610e1860408801610da7565b9350606087013592506080870135915060a0870135610e36816112d1565b809150509295509295509295565b600060208284031215610e55578081fd5b8151610a4a816112d1565b60008060408385031215610e72578182fd5b610e7b83610da7565b946020939093013593505050565b600080600060608486031215610e9d578283fd5b610ea684610da7565b95602085013595506040909401359392505050565b600060208284031215610ecc578081fd5b5035919050565b600060208284031215610ee4578081fd5b5051919050565b600080600060608486031215610eff578283fd5b833592506020840135610f11816112b9565b929592945050506040919091013590565b6001600160a01b03169052565b60008151808452815b81811015610f5457602081850181015186830182015201610f38565b81811115610f655782602083870101525b50601f01601f19169290920160200192915050565b6001600160a01b0391909116815260200190565b6001600160a01b0392831681529116602082015260400190565b6001600160a01b039384168152919092166020820152604081019190915260600190565b6001600160a01b0394851681529290931660208301526040820152606081019190915260800190565b6001600160a01b03968716815294861660208601529290941660408401526060830152608082019290925290151560a082015260c00190565b60208082528251828201819052600091906040908185019080840286018301878501865b838110156110f657603f1989840301855281516101008151600a811061107457fe5b8552818901516110868a870182610f22565b508782015161109789870182610f22565b506060808301516110aa82880182610f22565b50506080828101519086015260a0808301519086015260c0808301519086015260e0918201519185018190526110e281860183610f2f565b968901969450505090860190600101611052565b509098975050505050505050565b60208082526045908201527f5661756c74734d616e616765723a204120746f6b656e2068617320616c72656160408201527f6479206265656e2063726561746564207769746820746865736520706172616d606082015264657465727360d81b608082015260a00190565b6020808252602a908201527f5661756c74734d616e616765723a204e6565647320746f2063616c6c206170706040820152691c9bdd9948199a5c9cdd60b21b606082015260800190565b6020808252602e908201527f5661756c74734d616e616765723a20496e73756666696369656e7420636f6c6c60408201526d61746572616c2062616c616e636560901b606082015260800190565b6020808252602c908201527f5661756c74734d616e616765723a204661696c6564207472616e73666572696e60408201526b19c818dbdb1b185d195c985b60a21b606082015260800190565b6020808252603b908201527f5661756c74734d616e616765723a20546865204f70796e20563220737973746560408201527f6d2069732063757272656e746c792066756c6c79207061757365640000000000606082015260800190565b90815260200190565b6001600160a01b03811681146112ce57600080fd5b50565b80151581146112ce57600080fdfe307830303030303030303030303030303030303030303030303030303030303030303030303030303030a264697066735822122079aad7fc860ad17e7402f069369f385589762060a447335aceab2c2350347dfd64736f6c634300070400335661756c74734d616e616765723a204661696c65642073657474696e6720636f",
  "immutableReferences": {},
  "source": "// SPDX-License-Identifier: MIT\npragma solidity ^0.7.0;\n\npragma experimental ABIEncoderV2;\n\nimport {IERC20} from \"@openzeppelin/contracts/token/ERC20/IERC20.sol\";\nimport {SafeMath} from \"@openzeppelin/contracts/math/SafeMath.sol\";\n\nimport \"./OpynV2Helpers.sol\";\nimport {IController, Actions} from \"./interfaces/IController.sol\";\nimport {IOtokenFactory} from \"./interfaces/IOtokenFactory.sol\";\n\ncontract VaultsManager is OpynV2Helpers {\n    using SafeMath for uint256;\n\n    address[3] public validCollateral;\n    IController public controller;\n    IOtokenFactory public otokenFactory;\n    mapping(address => mapping(uint256 => uint256))[3]\n        public ownerVaultIdBalance;\n\n    enum Collateral {USDC, cUSDC, WETH}\n\n    event CollateralizedVaultOpened(\n        address accountOwner,\n        address collateral,\n        uint256 vaultId,\n        uint256 amount\n    );\n\n    event CollateralDeposited(\n        address accountOwner,\n        address collateral,\n        uint256 vaultId,\n        uint256 amount\n    );\n\n    event CollateralWithdrawn(\n        address accountOwner,\n        address collateral,\n        uint256 vaultId,\n        uint256 amount\n    );\n\n    event NewOtokenCreated(address newOtokenAddress);\n\n    constructor(address _OpynV2AddressBook, address[3] memory _validCollateral)\n        OpynV2Helpers(_OpynV2AddressBook)\n    {\n        validCollateral = _validCollateral;\n        controller = IController(OpynV2AddressBook.getController());\n        otokenFactory = IOtokenFactory(OpynV2AddressBook.getOtokenFactory());\n\n        address MarginPool = OpynV2AddressBook.getMarginPool();\n        IERC20 collateral;\n        bool firstApproveSuccess;\n        bool secondApproveSuccess;\n\n        for (uint8 i = 0; i < validCollateral.length; i++) {\n            collateral = IERC20(validCollateral[i]);\n\n            firstApproveSuccess = collateral.approve(MarginPool, 0);\n            require(\n                firstApproveSuccess,\n                \"VaultsManager: Failed setting collateral approve to 0\"\n            );\n\n            secondApproveSuccess = collateral.approve(\n                MarginPool,\n                type(uint256).max\n            );\n            require(\n                secondApproveSuccess,\n                \"VaultsManager: Failed setting collateral approve to maximum uint256\"\n            );\n        }\n    }\n\n    function _transferCollateral(Collateral _assetToTransfer, uint256 _amount)\n        internal\n    {\n        IERC20 collateral = IERC20(validCollateral[uint256(_assetToTransfer)]);\n\n        require(\n            collateral.balanceOf(msg.sender) >= _amount,\n            \"VaultsManager: Insufficient collateral balance\"\n        );\n        require(\n            collateral.allowance(msg.sender, address(this)) >= _amount,\n            \"VaultsManager: Needs to call approve first\"\n        );\n\n        bool transferSuccess = collateral.transferFrom(\n            msg.sender,\n            address(this),\n            _amount\n        );\n        require(\n            transferSuccess,\n            \"VaultsManager: Failed transfering collateral\"\n        );\n    }\n\n    function openCollateralizedVault(\n        Collateral _assetToDeposit,\n        uint256 _amount\n    ) public {\n        require(\n            !controller.systemFullyPaused(),\n            \"VaultsManager: The Opyn V2 system is currently fully paused\"\n        );\n\n        uint256 newVaultId = controller.getAccountVaultCounter(address(this)) +\n            1;\n\n        _transferCollateral(_assetToDeposit, _amount);\n\n        ownerVaultIdBalance[uint256(_assetToDeposit)][msg\n            .sender][newVaultId] = _amount;\n        emit CollateralizedVaultOpened(\n            msg.sender,\n            validCollateral[uint256(_assetToDeposit)],\n            newVaultId,\n            _amount\n        );\n\n        Actions.ActionArgs[] memory actions = new Actions.ActionArgs[](2);\n\n        actions[0] = Actions.ActionArgs({\n            actionType: Actions.ActionType.OpenVault,\n            owner: address(this),\n            secondAddress: address(0),\n            asset: address(0),\n            vaultId: newVaultId,\n            amount: 0,\n            index: 0,\n            data: \"0x0000000000000000000000000000000000000000\"\n        });\n\n        actions[1] = Actions.ActionArgs({\n            actionType: Actions.ActionType.DepositCollateral,\n            owner: address(this),\n            secondAddress: address(this),\n            asset: validCollateral[uint256(_assetToDeposit)],\n            vaultId: newVaultId,\n            amount: _amount,\n            index: 0,\n            data: \"0x0000000000000000000000000000000000000000\"\n        });\n\n        controller.operate(actions);\n    }\n\n    function depositCollateral(\n        Collateral _collateralToDeposit,\n        uint256 _vaultId,\n        uint256 _amount\n    ) public {\n        _transferCollateral(_collateralToDeposit, _amount);\n\n        ownerVaultIdBalance[uint256(_collateralToDeposit)][msg\n            .sender][_vaultId] = ownerVaultIdBalance[uint256(\n            _collateralToDeposit\n        )][msg.sender][_vaultId]\n            .add(_amount);\n\n        emit CollateralDeposited(\n            msg.sender,\n            validCollateral[uint256(_collateralToDeposit)],\n            _vaultId,\n            _amount\n        );\n\n        Actions.ActionArgs[] memory actions = new Actions.ActionArgs[](1);\n\n        actions[0] = Actions.ActionArgs({\n            actionType: Actions.ActionType.DepositCollateral,\n            owner: address(this),\n            secondAddress: address(this),\n            asset: validCollateral[uint256(_collateralToDeposit)],\n            vaultId: _vaultId,\n            amount: _amount,\n            index: 0,\n            data: \"0x0000000000000000000000000000000000000000\"\n        });\n\n        controller.operate(actions);\n    }\n\n    function withdrawCollateral(\n        Collateral _collateralToWithdraw,\n        uint256 _vaultId,\n        uint256 _amount\n    ) public {\n        ownerVaultIdBalance[uint256(_collateralToWithdraw)][msg\n            .sender][_vaultId] = ownerVaultIdBalance[uint256(\n            _collateralToWithdraw\n        )][msg.sender][_vaultId]\n            .sub(_amount);\n\n        emit CollateralWithdrawn(\n            msg.sender,\n            validCollateral[uint256(_collateralToWithdraw)],\n            _vaultId,\n            _amount\n        );\n\n        Actions.ActionArgs[] memory actions = new Actions.ActionArgs[](1);\n\n        actions[0] = Actions.ActionArgs({\n            actionType: Actions.ActionType.WithdrawCollateral,\n            owner: address(this),\n            secondAddress: msg.sender,\n            asset: validCollateral[uint256(_collateralToWithdraw)],\n            vaultId: _vaultId,\n            amount: _amount,\n            index: 0,\n            data: \"0x0000000000000000000000000000000000000000\"\n        });\n\n        controller.operate(actions);\n    }\n\n    function createOtoken(\n        address _underlyingAsset,\n        address _strikeAsset,\n        Collateral _collateralAsset,\n        uint256 _strikePrice,\n        uint256 _expiry,\n        bool _isPut\n    ) public returns (address) {\n        require(\n            otokenFactory.getOtoken(\n                _underlyingAsset,\n                _strikeAsset,\n                validCollateral[uint256(_collateralAsset)],\n                _strikePrice,\n                _expiry,\n                _isPut\n            ) == address(0),\n            \"VaultsManager: A token has already been created with these parameters\"\n        );\n\n        address newOtoken = otokenFactory.createOtoken(\n            _underlyingAsset,\n            _strikeAsset,\n            validCollateral[uint256(_collateralAsset)],\n            _strikePrice,\n            _expiry,\n            _isPut\n        );\n\n        emit NewOtokenCreated(newOtoken);\n\n        return newOtoken;\n    }\n}\n",
  "sourcePath": "/home/andre/src/repos/github/PermanentLoss/permanentloss/contracts/contracts/VaultsManager.sol",
  "compiler": {
    "name": "solc",
    "version": "0.7.4+commit.3f05b770.Emscripten.clang"
  },
  "schemaVersion": "3.3.0",
  "updatedAt": "2020-10-20T05:34:42.991Z",
  "devdoc": {
    "kind": "dev",
    "methods": {},
    "version": 1
  },
  "userdoc": {
    "kind": "user",
    "methods": {
      "OpynV2AddressBook()": {
        "notice": "Provides addresses for all modules in Opyn v2"
      }
    },
    "version": 1
  }
}