{
  "contractName": "VaultsManager",
  "abi": [
    {
      "inputs": [
        {
          "internalType": "address",
          "name": "_OpynV2AddressBook",
          "type": "address"
        },
        {
          "internalType": "address[3]",
          "name": "_validCollateral",
          "type": "address[3]"
        }
      ],
      "stateMutability": "nonpayable",
      "type": "constructor"
    },
    {
      "anonymous": false,
      "inputs": [
        {
          "indexed": false,
          "internalType": "uint256",
          "name": "newBalance",
          "type": "uint256"
        }
      ],
      "name": "NewBalance",
      "type": "event"
    },
    {
      "inputs": [],
      "name": "OpynV2AddressBook",
      "outputs": [
        {
          "internalType": "contract IAddressBook",
          "name": "",
          "type": "address"
        }
      ],
      "stateMutability": "view",
      "type": "function"
    },
    {
      "inputs": [],
      "name": "getOpynV2Controller",
      "outputs": [
        {
          "internalType": "address",
          "name": "",
          "type": "address"
        }
      ],
      "stateMutability": "view",
      "type": "function"
    },
    {
      "inputs": [
        {
          "internalType": "uint256",
          "name": "",
          "type": "uint256"
        }
      ],
      "name": "validCollateral",
      "outputs": [
        {
          "internalType": "address",
          "name": "",
          "type": "address"
        }
      ],
      "stateMutability": "view",
      "type": "function"
    },
    {
      "inputs": [
        {
          "internalType": "enum VaultsManager.Collateral",
          "name": "_assetToDeposit",
          "type": "uint8"
        },
        {
          "internalType": "uint256",
          "name": "_amount",
          "type": "uint256"
        }
      ],
      "name": "createCollateralizedVault",
      "outputs": [
        {
          "internalType": "uint256",
          "name": "",
          "type": "uint256"
        }
      ],
      "stateMutability": "nonpayable",
      "type": "function"
    }
  ],
  "bytecode": "0x60a060405234801561001057600080fd5b506040516108953803806108958339818101604052608081101561003357600080fd5b5080516001600160601b0319606082901b16608052906020016100596000826003610061565b5050506100ce565b82600381019282156100a9579160200282015b828111156100a957825182546001600160a01b0319166001600160a01b03909116178255602090920191600190910190610074565b506100b59291506100b9565b5090565b5b808211156100b557600081556001016100ba565b60805160601c6107a66100ef6000398060f152806105b852506107a66000f3fe608060405234801561001057600080fd5b506004361061004c5760003560e01c80632a6e760314610051578063454b07f91461008a578063a0fde25e14610092578063b2e38f16146100ca575b600080fd5b61006e6004803603602081101561006757600080fd5b50356100d2565b604080516001600160a01b039092168252519081900360200190f35b61006e6100ef565b6100b8600480360360408110156100a857600080fd5b5060ff8135169060200135610113565b60408051918252519081900360200190f35b61006e6105b3565b600081600381106100df57fe5b01546001600160a01b0316905081565b7f000000000000000000000000000000000000000000000000000000000000000081565b60008061011e6105b3565b9050806001600160a01b031663eab7775b6040518163ffffffff1660e01b815260040160206040518083038186803b15801561015957600080fd5b505afa15801561016d573d6000803e3d6000fd5b505050506040513d602081101561018357600080fd5b5051156101c15760405162461bcd60e51b815260040180806020018281038252603b815260200180610736603b913960400191505060405180910390fd5b6000816001600160a01b031663caa6d21a336040518263ffffffff1660e01b815260040180826001600160a01b0316815260200191505060206040518083038186803b15801561021057600080fd5b505afa158015610224573d6000803e3d6000fd5b505050506040513d602081101561023a57600080fd5b5051600101905060008086600281111561025057fe5b6003811061025a57fe5b0154604080516370a0823160e01b815233600482015290516001600160a01b039092169250869183916370a08231916024808301926020929190829003018186803b1580156102a857600080fd5b505afa1580156102bc573d6000803e3d6000fd5b505050506040513d60208110156102d257600080fd5b505110156103115760405162461bcd60e51b815260040180806020018281038252602e8152602001806106dc602e913960400191505060405180910390fd5b60408051636eb1769f60e11b8152336004820152306024820152905186916001600160a01b0384169163dd62ed3e91604480820192602092909190829003018186803b15801561036057600080fd5b505afa158015610374573d6000803e3d6000fd5b505050506040513d602081101561038a57600080fd5b505110156103c95760405162461bcd60e51b815260040180806020018281038252602a8152602001806106b2602a913960400191505060405180910390fd5b604080516323b872dd60e01b81523360048201523060248201526044810187905290516000916001600160a01b038416916323b872dd9160648082019260209290919082900301818787803b15801561042157600080fd5b505af1158015610435573d6000803e3d6000fd5b505050506040513d602081101561044b57600080fd5b505190508061048b5760405162461bcd60e51b815260040180806020018281038252602c81526020018061070a602c913960400191505060405180910390fd5b7fc65a4978ec211ff00b35080599c9f7d18787199d39683fe050a9c036af4d1b5e826001600160a01b03166370a08231306040518263ffffffff1660e01b815260040180826001600160a01b0316815260200191505060206040518083038186803b1580156104f957600080fd5b505afa15801561050d573d6000803e3d6000fd5b505050506040513d602081101561052357600080fd5b505160408051918252519081900360200190a1604080516370a0823160e01b815230600482015290516001600160a01b038416916370a08231916024808301926020929190829003018186803b15801561057c57600080fd5b505afa158015610590573d6000803e3d6000fd5b505050506040513d60208110156105a657600080fd5b5051979650505050505050565b6000807f00000000000000000000000000000000000000000000000000000000000000006001600160a01b0316633018205f6040518163ffffffff1660e01b815260040160206040518083038186803b15801561060f57600080fd5b505afa158015610623573d6000803e3d6000fd5b505050506040513d602081101561063957600080fd5b505160408051635c60da1b60e01b815290519192506001600160a01b03831691635c60da1b91600480820192602092909190829003018186803b15801561067f57600080fd5b505afa158015610693573d6000803e3d6000fd5b505050506040513d60208110156106a957600080fd5b50519150509056fe5661756c74734d616e616765723a204e6565647320746f2063616c6c20617070726f76652066697273745661756c74734d616e616765723a20496e73756666696369656e7420636f6c6c61746572616c2062616c616e63655661756c74734d616e616765723a204661696c6564207472616e73666572696e6720636f6c6c61746572616c5661756c74734d616e616765723a20546865204f70796e2056322073797374656d2069732063757272656e746c792066756c6c7920706175736564a264697066735822122029dddc41638d660e5aa471217d73cc9b7456c0218904e53af95e5588e97f44a064736f6c63430007030033",
  "immutableReferences": {
    "55": [
      {
        "length": 32,
        "start": 241
      },
      {
        "length": 32,
        "start": 1464
      }
    ]
  },
  "source": "// SPDX-License-Identifier: MIT\npragma solidity ^0.7.0;\n\nimport {IERC20} from \"@openzeppelin/contracts/token/ERC20/IERC20.sol\";\n\nimport \"./OpynV2Helpers.sol\";\nimport {IController, Actions} from \"./interfaces/IController.sol\";\n\ncontract VaultsManager is OpynV2Helpers {\n    address[3] public validCollateral;\n\n    event NewBalance(uint256 newBalance);\n\n    enum Collateral {USDC, cUSDC, WETH}\n\n    constructor(address _OpynV2AddressBook, address[3] memory _validCollateral)\n        OpynV2Helpers(_OpynV2AddressBook)\n    {\n        validCollateral = _validCollateral;\n    }\n\n    function createCollateralizedVault(\n        Collateral _assetToDeposit,\n        uint256 _amount\n    ) public returns (uint256) {\n        IController controller = IController(getOpynV2Controller());\n\n        require(\n            !controller.systemFullyPaused(),\n            \"VaultsManager: The Opyn V2 system is currently fully paused\"\n        );\n\n        uint256 newVaultId = controller.getAccountVaultCounter(msg.sender) + 1;\n\n        IERC20 collateral = IERC20(validCollateral[uint256(_assetToDeposit)]);\n\n        require(\n            collateral.balanceOf(msg.sender) >= _amount,\n            \"VaultsManager: Insufficient collateral balance\"\n        );\n        require(\n            collateral.allowance(msg.sender, address(this)) >= _amount,\n            \"VaultsManager: Needs to call approve first\"\n        );\n\n        bool transferSuccess = collateral.transferFrom(\n            msg.sender,\n            address(this),\n            _amount\n        );\n        require(\n            transferSuccess,\n            \"VaultsManager: Failed transfering collateral\"\n        );\n\n        emit NewBalance(collateral.balanceOf(address(this)));\n\n        return collateral.balanceOf(address(this));\n    }\n}\n",
  "sourcePath": "/home/andre/src/repos/github/PermanentLoss/permanentloss/contracts/contracts/VaultsManager.sol",
  "compiler": {
    "name": "solc",
    "version": "0.7.3+commit.9bfce1f6.Emscripten.clang"
  },
  "schemaVersion": "3.3.0",
  "updatedAt": "2020-10-16T01:05:17.965Z",
  "devdoc": {
    "kind": "dev",
    "methods": {
      "getOpynV2Controller()": {
        "details": "Opyn v2 uses proxies to deploy upgradable contracts and this is why we can not return OpynV2AddressBook.getController() directly",
        "returns": {
          "_0": "Address of the current Controller implementation contract"
        }
      }
    },
    "version": 1
  },
  "userdoc": {
    "kind": "user",
    "methods": {
      "OpynV2AddressBook()": {
        "notice": "Provides addresses for all modules in Opyn v2"
      },
      "getOpynV2Controller()": {
        "notice": "Get the address of the contract that controls the Gamma Protocol (Opyn v2) and the interaction of all sub contracts in the current network"
      }
    },
    "version": 1
  }
}