{
  "contractName": "VaultsManager",
  "abi": [
    {
      "inputs": [
        {
          "internalType": "address",
          "name": "_OpynV2AddressBook",
          "type": "address"
        },
        {
          "internalType": "address[3]",
          "name": "_validCollateral",
          "type": "address[3]"
        }
      ],
      "stateMutability": "nonpayable",
      "type": "constructor"
    },
    {
      "anonymous": false,
      "inputs": [
        {
          "indexed": false,
          "internalType": "address",
          "name": "accountOwner",
          "type": "address"
        },
        {
          "indexed": false,
          "internalType": "address",
          "name": "collateral",
          "type": "address"
        },
        {
          "indexed": false,
          "internalType": "uint256",
          "name": "vaultId",
          "type": "uint256"
        },
        {
          "indexed": false,
          "internalType": "uint256",
          "name": "amount",
          "type": "uint256"
        }
      ],
      "name": "CollateralDeposited",
      "type": "event"
    },
    {
      "anonymous": false,
      "inputs": [
        {
          "indexed": false,
          "internalType": "address",
          "name": "accountOwner",
          "type": "address"
        },
        {
          "indexed": false,
          "internalType": "address",
          "name": "collateral",
          "type": "address"
        },
        {
          "indexed": false,
          "internalType": "uint256",
          "name": "vaultId",
          "type": "uint256"
        },
        {
          "indexed": false,
          "internalType": "uint256",
          "name": "amount",
          "type": "uint256"
        }
      ],
      "name": "CollateralWithdrawn",
      "type": "event"
    },
    {
      "anonymous": false,
      "inputs": [
        {
          "indexed": false,
          "internalType": "address",
          "name": "accountOwner",
          "type": "address"
        },
        {
          "indexed": false,
          "internalType": "address",
          "name": "collateral",
          "type": "address"
        },
        {
          "indexed": false,
          "internalType": "uint256",
          "name": "vaultId",
          "type": "uint256"
        },
        {
          "indexed": false,
          "internalType": "uint256",
          "name": "amount",
          "type": "uint256"
        }
      ],
      "name": "CollateralizedVaultOpened",
      "type": "event"
    },
    {
      "inputs": [],
      "name": "OpynV2AddressBook",
      "outputs": [
        {
          "internalType": "contract IAddressBook",
          "name": "",
          "type": "address"
        }
      ],
      "stateMutability": "view",
      "type": "function"
    },
    {
      "inputs": [],
      "name": "controller",
      "outputs": [
        {
          "internalType": "contract IController",
          "name": "",
          "type": "address"
        }
      ],
      "stateMutability": "view",
      "type": "function"
    },
    {
      "inputs": [
        {
          "internalType": "uint256",
          "name": "",
          "type": "uint256"
        },
        {
          "internalType": "address",
          "name": "",
          "type": "address"
        },
        {
          "internalType": "uint256",
          "name": "",
          "type": "uint256"
        }
      ],
      "name": "ownerVaultIdBalance",
      "outputs": [
        {
          "internalType": "uint256",
          "name": "",
          "type": "uint256"
        }
      ],
      "stateMutability": "view",
      "type": "function"
    },
    {
      "inputs": [
        {
          "internalType": "uint256",
          "name": "",
          "type": "uint256"
        }
      ],
      "name": "validCollateral",
      "outputs": [
        {
          "internalType": "address",
          "name": "",
          "type": "address"
        }
      ],
      "stateMutability": "view",
      "type": "function"
    },
    {
      "inputs": [
        {
          "internalType": "enum VaultsManager.Collateral",
          "name": "_assetToDeposit",
          "type": "uint8"
        },
        {
          "internalType": "uint256",
          "name": "_amount",
          "type": "uint256"
        }
      ],
      "name": "openCollateralizedVault",
      "outputs": [],
      "stateMutability": "nonpayable",
      "type": "function"
    },
    {
      "inputs": [
        {
          "internalType": "enum VaultsManager.Collateral",
          "name": "_collateralToDeposit",
          "type": "uint8"
        },
        {
          "internalType": "uint256",
          "name": "_vaultId",
          "type": "uint256"
        },
        {
          "internalType": "uint256",
          "name": "_amount",
          "type": "uint256"
        }
      ],
      "name": "depositCollateral",
      "outputs": [],
      "stateMutability": "nonpayable",
      "type": "function"
    },
    {
      "inputs": [
        {
          "internalType": "enum VaultsManager.Collateral",
          "name": "_collateralToWithdraw",
          "type": "uint8"
        },
        {
          "internalType": "uint256",
          "name": "_vaultId",
          "type": "uint256"
        },
        {
          "internalType": "uint256",
          "name": "_amount",
          "type": "uint256"
        }
      ],
      "name": "withdrawCollateral",
      "outputs": [],
      "stateMutability": "nonpayable",
      "type": "function"
    }
  ],
  "bytecode": "0x60806040523480156200001157600080fd5b5060405162001509380380620015098339810160408190526200003491620003cf565b600080546001600160a01b0319166001600160a01b0384161790556200005e60018260036200031a565b5060008054906101000a90046001600160a01b03166001600160a01b0316633018205f6040518163ffffffff1660e01b815260040160206040518083038186803b158015620000ac57600080fd5b505afa158015620000c1573d6000803e3d6000fd5b505050506040513d601f19601f82011682018060405250810190620000e79190620003ab565b600480546001600160a01b0319166001600160a01b039283161781556000805460408051633aa431a160e11b81529051929491909116926375486342928282019260209290829003018186803b1580156200014157600080fd5b505afa15801562000156573d6000803e3d6000fd5b505050506040513d601f19601f820116820180604052508101906200017c9190620003ab565b905060008080805b60038160ff1610156200030d5760018160ff1660038110620001a257fe5b015460405163095ea7b360e01b81526001600160a01b039091169450849063095ea7b390620001d99088906000906004016200048f565b602060405180830381600087803b158015620001f457600080fd5b505af115801562000209573d6000803e3d6000fd5b505050506040513d601f19601f820116820180604052508101906200022f91906200046d565b9250826200025a5760405162461bcd60e51b8152600401620002519062000500565b60405180910390fd5b60405163095ea7b360e01b81526001600160a01b0385169063095ea7b3906200028c908890600019906004016200048f565b602060405180830381600087803b158015620002a757600080fd5b505af1158015620002bc573d6000803e3d6000fd5b505050506040513d601f19601f82011682018060405250810190620002e291906200046d565b915081620003045760405162461bcd60e51b81526004016200025190620004a8565b60010162000184565b505050505050506200054c565b826003810192821562000365579160200282015b828111156200036557825182546001600160a01b0319166001600160a01b039091161782556020909201916001909101906200032e565b506200037392915062000377565b5090565b5b8082111562000373576000815560010162000378565b80516001600160a01b0381168114620003a657600080fd5b919050565b600060208284031215620003bd578081fd5b620003c8826200038e565b9392505050565b60008060808385031215620003e2578081fd5b620003ed836200038e565b9150602084603f85011262000400578182fd5b604051606081016001600160401b03811182821017156200041d57fe5b604052808583016080870188101562000434578485fd5b845b60038110156200045e576200044b826200038e565b8352918401919084019060010162000436565b50505080925050509250929050565b6000602082840312156200047f578081fd5b81518015158114620003c8578182fd5b6001600160a01b03929092168252602082015260400190565b6020808252604390820152600080516020620014e983398151915260408201527f6c6c61746572616c20617070726f766520746f206d6178696d756d2075696e74606082015262191a9b60e91b608082015260a00190565b6020808252603590820152600080516020620014e983398151915260408201527f6c6c61746572616c20617070726f766520746f20300000000000000000000000606082015260800190565b610f8d806200055c6000396000f3fe608060405234801561001057600080fd5b506004361061007d5760003560e01c80633ff17d4b1161005b5780633ff17d4b146100e0578063454b07f9146100f35780638d34a62e146100fb578063f77c47911461010e5761007d565b8063085f78e4146100825780632a6e7603146100ab57806338410341146100cb575b600080fd5b610095610090366004610bae565b610116565b6040516100a29190610f24565b60405180910390f35b6100be6100b9366004610b7e565b610141565b6040516100a29190610c48565b6100de6100d9366004610b4c565b61015e565b005b6100de6100ee366004610b4c565b610370565b6100be6104b2565b6100de610109366004610b23565b6104c1565b6100be6107e1565b6005836003811061012357fe5b01602090815260009283526040808420909152908252902054905081565b6001816003811061014e57fe5b01546001600160a01b0316905081565b61019b81600585600281111561017057fe5b6003811061017a57fe5b336000908152910160209081526040808320878452909152902054906107f0565b60058460028111156101a957fe5b600381106101b357fe5b33600081815291909201602090815260408083208784529091529020919091557f4700a5c58c58ea6536703185e43dae38bfd4158ee5330c70988f02a65562a36e90600185600281111561020357fe5b6003811061020d57fe5b015460405161022a92916001600160a01b03169086908690610c9a565b60405180910390a1604080516001808252818301909252606091816020015b610251610a8e565b815260200190600190039081610249579050506040805161010081019091529091508060068152306020820152336040820152606001600186600281111561029557fe5b6003811061029f57fe5b0160009054906101000a90046001600160a01b03166001600160a01b03168152602001848152602001838152602001600081526020016040518060600160405280602a8152602001610f2e602a9139815250816000815181106102fe57fe5b602090810291909101015260048054604051635b0bf86360e11b81526001600160a01b039091169163b617f0c69161033891859101610cc3565b600060405180830381600087803b15801561035257600080fd5b505af1158015610366573d6000803e3d6000fd5b5050505050505050565b61037a8382610839565b6103b781600585600281111561038c57fe5b6003811061039657fe5b33600090815291016020908152604080832087845290915290205490610a3d565b60058460028111156103c557fe5b600381106103cf57fe5b33600081815291909201602090815260408083208784529091529020919091557f95d16db8c4932fcf5d6de67364791e7178ec505c7d3829a8b34d18959c01552c90600185600281111561041f57fe5b6003811061042957fe5b015460405161044692916001600160a01b03169086908690610c9a565b60405180910390a1604080516001808252818301909252606091816020015b61046d610a8e565b81526020019060019003908161046557905050604080516101008101909152909150806005815230602082018190526040820152606001600186600281111561029557fe5b6000546001600160a01b031681565b600480546040805163eab7775b60e01b815290516001600160a01b039092169263eab7775b928282019260209290829003018186803b15801561050357600080fd5b505afa158015610517573d6000803e3d6000fd5b505050506040513d601f19601f8201168201806040525081019061053b9190610b03565b156105615760405162461bcd60e51b815260040161055890610ec7565b60405180910390fd5b60048054604051636553690d60e11b81526000926001600160a01b039092169163caa6d21a9161059391309101610c48565b60206040518083038186803b1580156105ab57600080fd5b505afa1580156105bf573d6000803e3d6000fd5b505050506040513d601f19601f820116820180604052508101906105e39190610b96565b60010190506105f28383610839565b81600584600281111561060157fe5b6003811061060b57fe5b33600081815291909201602090815260408083208684529091529020919091557f3bd9dbc69f7d1e4029eed87846c11ea0ff9b48f8e2b38ddee2f6593a2d96024090600185600281111561065b57fe5b6003811061066557fe5b015460405161068292916001600160a01b03169085908790610c9a565b60405180910390a16040805160028082526060828101909352816020015b6106a8610a8e565b8152602001906001900390816106a0579050506040805161010081019091529091508060008152602001306001600160a01b0316815260200160006001600160a01b0316815260200160006001600160a01b0316815260200183815260200160008152602001600081526020016040518060600160405280602a8152602001610f2e602a91398152508160008151811061073e57fe5b6020908102919091010152604080516101008101909152806005815230602082018190526040820152606001600186600281111561077857fe5b6003811061078257fe5b0160009054906101000a90046001600160a01b03166001600160a01b03168152602001838152602001848152602001600081526020016040518060600160405280602a8152602001610f2e602a9139815250816001815181106102fe57fe5b6004546001600160a01b031681565b600061083283836040518060400160405280601e81526020017f536166654d6174683a207375627472616374696f6e206f766572666c6f770000815250610a62565b9392505050565b6000600183600281111561084957fe5b6003811061085357fe5b01546040516370a0823160e01b81526001600160a01b039091169150829082906370a0823190610887903390600401610c48565b60206040518083038186803b15801561089f57600080fd5b505afa1580156108b3573d6000803e3d6000fd5b505050506040513d601f19601f820116820180604052508101906108d79190610b96565b10156108f55760405162461bcd60e51b815260040161055890610e2d565b604051636eb1769f60e11b815282906001600160a01b0383169063dd62ed3e906109259033903090600401610c5c565b60206040518083038186803b15801561093d57600080fd5b505afa158015610951573d6000803e3d6000fd5b505050506040513d601f19601f820116820180604052508101906109759190610b96565b10156109935760405162461bcd60e51b815260040161055890610de3565b6040516323b872dd60e01b81526000906001600160a01b038316906323b872dd906109c690339030908890600401610c76565b602060405180830381600087803b1580156109e057600080fd5b505af11580156109f4573d6000803e3d6000fd5b505050506040513d601f19601f82011682018060405250810190610a189190610b03565b905080610a375760405162461bcd60e51b815260040161055890610e7b565b50505050565b6000828201838110156108325760405162461bcd60e51b815260040161055890610dac565b60008184841115610a865760405162461bcd60e51b81526004016105589190610d99565b505050900390565b604080516101008101909152806000815260200160006001600160a01b0316815260200160006001600160a01b0316815260200160006001600160a01b03168152602001600081526020016000815260200160008152602001606081525090565b803560038110610afe57600080fd5b919050565b600060208284031215610b14578081fd5b81518015158114610832578182fd5b60008060408385031215610b35578081fd5b610b3e83610aef565b946020939093013593505050565b600080600060608486031215610b60578081fd5b610b6984610aef565b95602085013595506040909401359392505050565b600060208284031215610b8f578081fd5b5035919050565b600060208284031215610ba7578081fd5b5051919050565b600080600060608486031215610bc2578283fd5b8335925060208401356001600160a01b0381168114610bdf578283fd5b929592945050506040919091013590565b6001600160a01b03169052565b60008151808452815b81811015610c2257602081850181015186830182015201610c06565b81811115610c335782602083870101525b50601f01601f19169290920160200192915050565b6001600160a01b0391909116815260200190565b6001600160a01b0392831681529116602082015260400190565b6001600160a01b039384168152919092166020820152604081019190915260600190565b6001600160a01b0394851681529290931660208301526040820152606081019190915260800190565b60208082528251828201819052600091906040908185019080840286018301878501865b83811015610d8b57603f1989840301855281516101008151600a8110610d0957fe5b855281890151610d1b8a870182610bf0565b5087820151610d2c89870182610bf0565b50606080830151610d3f82880182610bf0565b50506080828101519086015260a0808301519086015260c0808301519086015260e091820151918501819052610d7781860183610bfd565b968901969450505090860190600101610ce7565b509098975050505050505050565b6000602082526108326020830184610bfd565b6020808252601b908201527f536166654d6174683a206164646974696f6e206f766572666c6f770000000000604082015260600190565b6020808252602a908201527f5661756c74734d616e616765723a204e6565647320746f2063616c6c206170706040820152691c9bdd9948199a5c9cdd60b21b606082015260800190565b6020808252602e908201527f5661756c74734d616e616765723a20496e73756666696369656e7420636f6c6c60408201526d61746572616c2062616c616e636560901b606082015260800190565b6020808252602c908201527f5661756c74734d616e616765723a204661696c6564207472616e73666572696e60408201526b19c818dbdb1b185d195c985b60a21b606082015260800190565b6020808252603b908201527f5661756c74734d616e616765723a20546865204f70796e20563220737973746560408201527f6d2069732063757272656e746c792066756c6c79207061757365640000000000606082015260800190565b9081526020019056fe307830303030303030303030303030303030303030303030303030303030303030303030303030303030a2646970667358221220d8772dcf91dd3dfd7c3838d8b8fcd3335ab5de58bd2a6fa8a3649032f6329b8864736f6c634300070300335661756c74734d616e616765723a204661696c65642073657474696e6720636f",
  "immutableReferences": {},
  "source": "// SPDX-License-Identifier: MIT\npragma solidity ^0.7.0;\n\npragma experimental ABIEncoderV2;\n\nimport {IERC20} from \"@openzeppelin/contracts/token/ERC20/IERC20.sol\";\nimport {SafeMath} from \"@openzeppelin/contracts/math/SafeMath.sol\";\n\nimport \"./OpynV2Helpers.sol\";\nimport {IController, Actions} from \"./interfaces/IController.sol\";\n\ncontract VaultsManager is OpynV2Helpers {\n    using SafeMath for uint256;\n\n    address[3] public validCollateral;\n    IController public controller;\n    mapping(address => mapping(uint256 => uint256))[3]\n        public ownerVaultIdBalance;\n\n    enum Collateral {USDC, cUSDC, WETH}\n\n    event CollateralizedVaultOpened(\n        address accountOwner,\n        address collateral,\n        uint256 vaultId,\n        uint256 amount\n    );\n\n    event CollateralDeposited(\n        address accountOwner,\n        address collateral,\n        uint256 vaultId,\n        uint256 amount\n    );\n\n    event CollateralWithdrawn(\n        address accountOwner,\n        address collateral,\n        uint256 vaultId,\n        uint256 amount\n    );\n\n    constructor(address _OpynV2AddressBook, address[3] memory _validCollateral)\n        OpynV2Helpers(_OpynV2AddressBook)\n    {\n        validCollateral = _validCollateral;\n        controller = IController(OpynV2AddressBook.getController());\n\n        address MarginPool = OpynV2AddressBook.getMarginPool();\n        IERC20 collateral;\n        bool firstApproveSuccess;\n        bool secondApproveSuccess;\n\n        for (uint8 i = 0; i < validCollateral.length; i++) {\n            collateral = IERC20(validCollateral[i]);\n\n            firstApproveSuccess = collateral.approve(MarginPool, 0);\n            require(\n                firstApproveSuccess,\n                \"VaultsManager: Failed setting collateral approve to 0\"\n            );\n\n            secondApproveSuccess = collateral.approve(\n                MarginPool,\n                type(uint256).max\n            );\n            require(\n                secondApproveSuccess,\n                \"VaultsManager: Failed setting collateral approve to maximum uint256\"\n            );\n        }\n    }\n\n    function _transferCollateral(Collateral _assetToTransfer, uint256 _amount)\n        internal\n    {\n        IERC20 collateral = IERC20(validCollateral[uint256(_assetToTransfer)]);\n\n        require(\n            collateral.balanceOf(msg.sender) >= _amount,\n            \"VaultsManager: Insufficient collateral balance\"\n        );\n        require(\n            collateral.allowance(msg.sender, address(this)) >= _amount,\n            \"VaultsManager: Needs to call approve first\"\n        );\n\n        bool transferSuccess = collateral.transferFrom(\n            msg.sender,\n            address(this),\n            _amount\n        );\n        require(\n            transferSuccess,\n            \"VaultsManager: Failed transfering collateral\"\n        );\n    }\n\n    function openCollateralizedVault(\n        Collateral _assetToDeposit,\n        uint256 _amount\n    ) public {\n        require(\n            !controller.systemFullyPaused(),\n            \"VaultsManager: The Opyn V2 system is currently fully paused\"\n        );\n\n        uint256 newVaultId = controller.getAccountVaultCounter(address(this)) +\n            1;\n\n        _transferCollateral(_assetToDeposit, _amount);\n\n        ownerVaultIdBalance[uint256(_assetToDeposit)][msg\n            .sender][newVaultId] = _amount;\n        emit CollateralizedVaultOpened(\n            msg.sender,\n            validCollateral[uint256(_assetToDeposit)],\n            newVaultId,\n            _amount\n        );\n\n        Actions.ActionArgs[] memory actions = new Actions.ActionArgs[](2);\n\n        actions[0] = Actions.ActionArgs({\n            actionType: Actions.ActionType.OpenVault,\n            owner: address(this),\n            secondAddress: address(0),\n            asset: address(0),\n            vaultId: newVaultId,\n            amount: 0,\n            index: 0,\n            data: \"0x0000000000000000000000000000000000000000\"\n        });\n\n        actions[1] = Actions.ActionArgs({\n            actionType: Actions.ActionType.DepositCollateral,\n            owner: address(this),\n            secondAddress: address(this),\n            asset: validCollateral[uint256(_assetToDeposit)],\n            vaultId: newVaultId,\n            amount: _amount,\n            index: 0,\n            data: \"0x0000000000000000000000000000000000000000\"\n        });\n\n        controller.operate(actions);\n    }\n\n    function depositCollateral(\n        Collateral _collateralToDeposit,\n        uint256 _vaultId,\n        uint256 _amount\n    ) public {\n        _transferCollateral(_collateralToDeposit, _amount);\n\n        ownerVaultIdBalance[uint256(_collateralToDeposit)][msg\n            .sender][_vaultId] = ownerVaultIdBalance[uint256(\n            _collateralToDeposit\n        )][msg.sender][_vaultId]\n            .add(_amount);\n\n        emit CollateralDeposited(\n            msg.sender,\n            validCollateral[uint256(_collateralToDeposit)],\n            _vaultId,\n            _amount\n        );\n\n        Actions.ActionArgs[] memory actions = new Actions.ActionArgs[](1);\n\n        actions[0] = Actions.ActionArgs({\n            actionType: Actions.ActionType.DepositCollateral,\n            owner: address(this),\n            secondAddress: address(this),\n            asset: validCollateral[uint256(_collateralToDeposit)],\n            vaultId: _vaultId,\n            amount: _amount,\n            index: 0,\n            data: \"0x0000000000000000000000000000000000000000\"\n        });\n\n        controller.operate(actions);\n    }\n\n    function withdrawCollateral(\n        Collateral _collateralToWithdraw,\n        uint256 _vaultId,\n        uint256 _amount\n    ) public {\n        ownerVaultIdBalance[uint256(_collateralToWithdraw)][msg\n            .sender][_vaultId] = ownerVaultIdBalance[uint256(\n            _collateralToWithdraw\n        )][msg.sender][_vaultId]\n            .sub(_amount);\n\n        emit CollateralWithdrawn(\n            msg.sender,\n            validCollateral[uint256(_collateralToWithdraw)],\n            _vaultId,\n            _amount\n        );\n\n        Actions.ActionArgs[] memory actions = new Actions.ActionArgs[](1);\n\n        actions[0] = Actions.ActionArgs({\n            actionType: Actions.ActionType.WithdrawCollateral,\n            owner: address(this),\n            secondAddress: msg.sender,\n            asset: validCollateral[uint256(_collateralToWithdraw)],\n            vaultId: _vaultId,\n            amount: _amount,\n            index: 0,\n            data: \"0x0000000000000000000000000000000000000000\"\n        });\n\n        controller.operate(actions);\n    }\n}\n",
  "sourcePath": "/home/andre/src/repos/github/PermanentLoss/permanentloss/contracts/contracts/VaultsManager.sol",
  "compiler": {
    "name": "solc",
    "version": "0.7.3+commit.9bfce1f6.Emscripten.clang"
  },
  "schemaVersion": "3.3.0",
  "updatedAt": "2020-10-17T02:17:37.256Z",
  "devdoc": {
    "kind": "dev",
    "methods": {},
    "version": 1
  },
  "userdoc": {
    "kind": "user",
    "methods": {
      "OpynV2AddressBook()": {
        "notice": "Provides addresses for all modules in Opyn v2"
      }
    },
    "version": 1
  }
}