{
  "contractName": "VaultsManager",
  "abi": [
    {
      "inputs": [
        {
          "internalType": "address",
          "name": "_OpynV2AddressBook",
          "type": "address"
        },
        {
          "internalType": "address[3]",
          "name": "_validCollateral",
          "type": "address[3]"
        }
      ],
      "stateMutability": "nonpayable",
      "type": "constructor"
    },
    {
      "anonymous": false,
      "inputs": [
        {
          "indexed": false,
          "internalType": "address",
          "name": "accountOwner",
          "type": "address"
        },
        {
          "indexed": false,
          "internalType": "uint256",
          "name": "vaultId",
          "type": "uint256"
        },
        {
          "indexed": false,
          "internalType": "uint256",
          "name": "amountDeposited",
          "type": "uint256"
        }
      ],
      "name": "CollateralizedVaultOpened",
      "type": "event"
    },
    {
      "inputs": [],
      "name": "OpynV2AddressBook",
      "outputs": [
        {
          "internalType": "contract IAddressBook",
          "name": "",
          "type": "address"
        }
      ],
      "stateMutability": "view",
      "type": "function"
    },
    {
      "inputs": [
        {
          "internalType": "address",
          "name": "",
          "type": "address"
        },
        {
          "internalType": "uint256",
          "name": "",
          "type": "uint256"
        }
      ],
      "name": "ownerVaultIdBalance",
      "outputs": [
        {
          "internalType": "uint256",
          "name": "",
          "type": "uint256"
        }
      ],
      "stateMutability": "view",
      "type": "function"
    },
    {
      "inputs": [
        {
          "internalType": "uint256",
          "name": "",
          "type": "uint256"
        }
      ],
      "name": "validCollateral",
      "outputs": [
        {
          "internalType": "address",
          "name": "",
          "type": "address"
        }
      ],
      "stateMutability": "view",
      "type": "function"
    },
    {
      "inputs": [
        {
          "internalType": "enum VaultsManager.Collateral",
          "name": "_assetToDeposit",
          "type": "uint8"
        },
        {
          "internalType": "uint256",
          "name": "_amount",
          "type": "uint256"
        }
      ],
      "name": "openCollateralizedVault",
      "outputs": [],
      "stateMutability": "nonpayable",
      "type": "function"
    }
  ],
  "bytecode": "0x60a06040523480156200001157600080fd5b5060405162000f6338038062000f638339810160408190526200003491620000ef565b6001600160601b0319606083901b166080526200005560008260036200005e565b5050506200018d565b8260038101928215620000a9579160200282015b82811115620000a957825182546001600160a01b0319166001600160a01b0390911617825560209092019160019091019062000072565b50620000b7929150620000bb565b5090565b5b80821115620000b75760008155600101620000bc565b80516001600160a01b0381168114620000ea57600080fd5b919050565b6000806080838503121562000102578182fd5b6200010d83620000d2565b9150602084603f85011262000120578182fd5b604051606081016001600160401b03811182821017156200013d57fe5b604052808583016080870188101562000154578485fd5b845b60038110156200017e576200016b82620000d2565b8352918401919084019060010162000156565b50505080925050509250929050565b60805160601c610db0620001b36000398060d6528060fc52806104a95250610db06000f3fe608060405234801561001057600080fd5b506004361061004c5760003560e01c80632a6e760314610051578063454b07f91461007a5780638d34a62e14610082578063e327431a14610097575b600080fd5b61006461005f3660046109af565b6100b7565b6040516100719190610a37565b60405180910390f35b6100646100d4565b61009561009036600461098f565b6100f8565b005b6100aa6100a5366004610944565b6108a3565b6040516100719190610d2f565b600081600381106100c457fe5b01546001600160a01b0316905081565b7f000000000000000000000000000000000000000000000000000000000000000081565b60007f00000000000000000000000000000000000000000000000000000000000000006001600160a01b0316633018205f6040518163ffffffff1660e01b815260040160206040518083038186803b15801561015357600080fd5b505afa158015610167573d6000803e3d6000fd5b505050506040513d601f19601f8201168201806040525081019061018b9190610921565b9050806001600160a01b031663eab7775b6040518163ffffffff1660e01b815260040160206040518083038186803b1580156101c657600080fd5b505afa1580156101da573d6000803e3d6000fd5b505050506040513d601f19601f820116820180604052508101906101fe919061096f565b156102245760405162461bcd60e51b815260040161021b90610cd2565b60405180910390fd5b604051636553690d60e11b81526000906001600160a01b0383169063caa6d21a90610253903090600401610a37565b60206040518083038186803b15801561026b57600080fd5b505afa15801561027f573d6000803e3d6000fd5b505050506040513d601f19601f820116820180604052508101906102a391906109c7565b60010190506000808560028111156102b757fe5b600381106102c157fe5b01546040516370a0823160e01b81526001600160a01b039091169150849082906370a08231906102f5903390600401610a37565b60206040518083038186803b15801561030d57600080fd5b505afa158015610321573d6000803e3d6000fd5b505050506040513d601f19601f8201168201806040525081019061034591906109c7565b10156103635760405162461bcd60e51b815260040161021b90610c38565b604051636eb1769f60e11b815284906001600160a01b0383169063dd62ed3e906103939033903090600401610a4b565b60206040518083038186803b1580156103ab57600080fd5b505afa1580156103bf573d6000803e3d6000fd5b505050506040513d601f19601f820116820180604052508101906103e391906109c7565b10156104015760405162461bcd60e51b815260040161021b90610bee565b6040516323b872dd60e01b81526000906001600160a01b038316906323b872dd9061043490339030908a90600401610a65565b602060405180830381600087803b15801561044e57600080fd5b505af1158015610462573d6000803e3d6000fd5b505050506040513d601f19601f82011682018060405250810190610486919061096f565b9050806104a55760405162461bcd60e51b815260040161021b90610c86565b60007f00000000000000000000000000000000000000000000000000000000000000006001600160a01b031663754863426040518163ffffffff1660e01b815260040160206040518083038186803b15801561050057600080fd5b505afa158015610514573d6000803e3d6000fd5b505050506040513d601f19601f820116820180604052508101906105389190610921565b90506000836001600160a01b031663095ea7b38360006040518363ffffffff1660e01b815260040161056b929190610aaa565b602060405180830381600087803b15801561058557600080fd5b505af1158015610599573d6000803e3d6000fd5b505050506040513d601f19601f820116820180604052508101906105bd919061096f565b9050806105dc5760405162461bcd60e51b815260040161021b90610b99565b60405163095ea7b360e01b81526000906001600160a01b0386169063095ea7b39061060f90869060001990600401610aaa565b602060405180830381600087803b15801561062957600080fd5b505af115801561063d573d6000803e3d6000fd5b505050506040513d601f19601f82011682018060405250810190610661919061096f565b9050806106805760405162461bcd60e51b815260040161021b90610b99565b3360008181526003602090815260408083208a8452909152908190208a9055517ff8ee3a917a062fd68228de5c46119d74ffe9a47a44d37c3fb138eb8646fea8fe916106cf9189908c90610a89565b60405180910390a16040805160028082526060828101909352816020015b6106f56108c0565b8152602001906001900390816106ed579050506040805161010081019091529091508060008152602001306001600160a01b0316815260200160006001600160a01b0316815260200160006001600160a01b0316815260200188815260200160008152602001600081526020016040518060600160405280602a8152602001610d51602a91398152508160008151811061078b57fe5b602090810291909101015260408051610100810190915280600581523060208201819052604082015260600160008c60028111156107c557fe5b600381106107cf57fe5b0160009054906101000a90046001600160a01b03166001600160a01b031681526020018881526020018a8152602001600081526020016040518060600160405280602a8152602001610d51602a91398152508160018151811061082e57fe5b6020908102919091010152604051635b0bf86360e11b81526001600160a01b0389169063b617f0c690610865908490600401610ac3565b600060405180830381600087803b15801561087f57600080fd5b505af1158015610893573d6000803e3d6000fd5b5050505050505050505050505050565b600360209081526000928352604080842090915290825290205481565b604080516101008101909152806000815260200160006001600160a01b0316815260200160006001600160a01b0316815260200160006001600160a01b03168152602001600081526020016000815260200160008152602001606081525090565b600060208284031215610932578081fd5b815161093d81610d38565b9392505050565b60008060408385031215610956578081fd5b823561096181610d38565b946020939093013593505050565b600060208284031215610980578081fd5b8151801515811461093d578182fd5b600080604083850312156109a1578182fd5b823560038110610961578283fd5b6000602082840312156109c0578081fd5b5035919050565b6000602082840312156109d8578081fd5b5051919050565b6001600160a01b03169052565b60008151808452815b81811015610a11576020818501810151868301820152016109f5565b81811115610a225782602083870101525b50601f01601f19169290920160200192915050565b6001600160a01b0391909116815260200190565b6001600160a01b0392831681529116602082015260400190565b6001600160a01b039384168152919092166020820152604081019190915260600190565b6001600160a01b039390931683526020830191909152604082015260600190565b6001600160a01b03929092168252602082015260400190565b60208082528251828201819052600091906040908185019080840286018301878501865b83811015610b8b57603f1989840301855281516101008151600a8110610b0957fe5b855281890151610b1b8a8701826109df565b5087820151610b2c898701826109df565b50606080830151610b3f828801826109df565b50506080828101519086015260a0808301519086015260c0808301519086015260e091820151918501819052610b77818601836109ec565b968901969450505090860190600101610ae7565b509098975050505050505050565b60208082526035908201527f5661756c74734d616e616765723a204661696c65642073657474696e6720636f60408201527406c6c61746572616c20617070726f766520746f203605c1b606082015260800190565b6020808252602a908201527f5661756c74734d616e616765723a204e6565647320746f2063616c6c206170706040820152691c9bdd9948199a5c9cdd60b21b606082015260800190565b6020808252602e908201527f5661756c74734d616e616765723a20496e73756666696369656e7420636f6c6c60408201526d61746572616c2062616c616e636560901b606082015260800190565b6020808252602c908201527f5661756c74734d616e616765723a204661696c6564207472616e73666572696e60408201526b19c818dbdb1b185d195c985b60a21b606082015260800190565b6020808252603b908201527f5661756c74734d616e616765723a20546865204f70796e20563220737973746560408201527f6d2069732063757272656e746c792066756c6c79207061757365640000000000606082015260800190565b90815260200190565b6001600160a01b0381168114610d4d57600080fd5b5056fe307830303030303030303030303030303030303030303030303030303030303030303030303030303030a2646970667358221220cf568d1cd0415facf9e51c90d7db979b178ecaf4d8f200e3083dbb3e746844ab64736f6c63430007030033",
  "immutableReferences": {
    "54": [
      {
        "length": 32,
        "start": 214
      },
      {
        "length": 32,
        "start": 252
      },
      {
        "length": 32,
        "start": 1193
      }
    ]
  },
  "source": "// SPDX-License-Identifier: MIT\npragma solidity ^0.7.0;\n\npragma experimental ABIEncoderV2;\n\nimport {IERC20} from \"@openzeppelin/contracts/token/ERC20/IERC20.sol\";\n\nimport \"./OpynV2Helpers.sol\";\nimport {IController, Actions} from \"./interfaces/IController.sol\";\n\ncontract VaultsManager is OpynV2Helpers {\n    address[3] public validCollateral;\n    mapping(address => mapping(uint256 => uint256)) public ownerVaultIdBalance;\n\n    enum Collateral {USDC, cUSDC, WETH}\n\n    event CollateralizedVaultOpened(\n        address accountOwner,\n        uint256 vaultId,\n        uint256 amountDeposited\n    );\n\n    constructor(address _OpynV2AddressBook, address[3] memory _validCollateral)\n        OpynV2Helpers(_OpynV2AddressBook)\n    {\n        validCollateral = _validCollateral;\n    }\n\n    function openCollateralizedVault(\n        Collateral _assetToDeposit,\n        uint256 _amount\n    ) public {\n        IController controller = IController(OpynV2AddressBook.getController());\n\n        require(\n            !controller.systemFullyPaused(),\n            \"VaultsManager: The Opyn V2 system is currently fully paused\"\n        );\n\n        uint256 newVaultId = controller.getAccountVaultCounter(address(this)) +\n            1;\n\n        IERC20 collateral = IERC20(validCollateral[uint256(_assetToDeposit)]);\n\n        require(\n            collateral.balanceOf(msg.sender) >= _amount,\n            \"VaultsManager: Insufficient collateral balance\"\n        );\n        require(\n            collateral.allowance(msg.sender, address(this)) >= _amount,\n            \"VaultsManager: Needs to call approve first\"\n        );\n\n        bool transferSuccess = collateral.transferFrom(\n            msg.sender,\n            address(this),\n            _amount\n        );\n        require(\n            transferSuccess,\n            \"VaultsManager: Failed transfering collateral\"\n        );\n\n        address MarginPool = OpynV2AddressBook.getMarginPool();\n\n        bool firstApproveSuccess = collateral.approve(MarginPool, 0);\n        require(\n            firstApproveSuccess,\n            \"VaultsManager: Failed setting collateral approve to 0\"\n        );\n\n        bool secondApproveSuccess = collateral.approve(\n            MarginPool,\n            type(uint256).max\n        );\n        require(\n            secondApproveSuccess,\n            \"VaultsManager: Failed setting collateral approve to 0\"\n        );\n\n        ownerVaultIdBalance[msg.sender][newVaultId] = _amount;\n        emit CollateralizedVaultOpened(msg.sender, newVaultId, _amount);\n\n        Actions.ActionArgs[] memory actions = new Actions.ActionArgs[](2);\n\n        actions[0] = Actions.ActionArgs({\n            actionType: Actions.ActionType.OpenVault,\n            owner: address(this),\n            secondAddress: address(0),\n            asset: address(0),\n            vaultId: newVaultId,\n            amount: 0,\n            index: 0,\n            data: \"0x0000000000000000000000000000000000000000\"\n        });\n\n        actions[1] = Actions.ActionArgs({\n            actionType: Actions.ActionType.DepositCollateral,\n            owner: address(this),\n            secondAddress: address(this),\n            asset: validCollateral[uint256(_assetToDeposit)],\n            vaultId: newVaultId,\n            amount: _amount,\n            index: 0,\n            data: \"0x0000000000000000000000000000000000000000\"\n        });\n\n        controller.operate(actions);\n    }\n}\n",
  "sourcePath": "/home/andre/src/repos/github/PermanentLoss/permanentloss/contracts/contracts/VaultsManager.sol",
  "compiler": {
    "name": "solc",
    "version": "0.7.3+commit.9bfce1f6.Emscripten.clang"
  },
  "schemaVersion": "3.3.0",
  "updatedAt": "2020-10-16T21:56:52.608Z",
  "devdoc": {
    "kind": "dev",
    "methods": {},
    "version": 1
  },
  "userdoc": {
    "kind": "user",
    "methods": {
      "OpynV2AddressBook()": {
        "notice": "Provides addresses for all modules in Opyn v2"
      }
    },
    "version": 1
  }
}