{
  "contractName": "VaultsManager",
  "abi": [
    {
      "inputs": [
        {
          "internalType": "address",
          "name": "_OpynV2AddressBook",
          "type": "address"
        },
        {
          "internalType": "address[3]",
          "name": "_validCollateral",
          "type": "address[3]"
        }
      ],
      "stateMutability": "nonpayable",
      "type": "constructor"
    },
    {
      "anonymous": false,
      "inputs": [
        {
          "indexed": false,
          "internalType": "address",
          "name": "owner",
          "type": "address"
        }
      ],
      "name": "CreatedVault",
      "type": "event"
    },
    {
      "inputs": [],
      "name": "OpynV2AddressBook",
      "outputs": [
        {
          "internalType": "contract IAddressBook",
          "name": "",
          "type": "address"
        }
      ],
      "stateMutability": "view",
      "type": "function"
    },
    {
      "inputs": [],
      "name": "getOpynV2Controller",
      "outputs": [
        {
          "internalType": "address",
          "name": "",
          "type": "address"
        }
      ],
      "stateMutability": "view",
      "type": "function"
    },
    {
      "inputs": [
        {
          "internalType": "uint256",
          "name": "",
          "type": "uint256"
        }
      ],
      "name": "validCollateral",
      "outputs": [
        {
          "internalType": "address",
          "name": "",
          "type": "address"
        }
      ],
      "stateMutability": "view",
      "type": "function"
    },
    {
      "inputs": [
        {
          "internalType": "enum VaultsManager.Collateral",
          "name": "_assetToDeposit",
          "type": "uint8"
        },
        {
          "internalType": "uint256",
          "name": "_amount",
          "type": "uint256"
        }
      ],
      "name": "createCollateralizedVault",
      "outputs": [],
      "stateMutability": "nonpayable",
      "type": "function"
    }
  ],
  "bytecode": "0x60a060405234801561001057600080fd5b5060405162000c4438038062000c44833981016040819052610031916100e1565b6001600160601b0319606083901b166080526100506000826003610058565b505050610175565b82600381019282156100a0579160200282015b828111156100a057825182546001600160a01b0319166001600160a01b0390911617825560209092019160019091019061006b565b506100ac9291506100b0565b5090565b5b808211156100ac57600081556001016100b1565b80516001600160a01b03811681146100dc57600080fd5b919050565b600080608083850312156100f3578182fd5b6100fc836100c5565b9150602084603f85011261010e578182fd5b604051606081016001600160401b038111828210171561012a57fe5b6040528085830160808701881015610140578485fd5b845b600381101561016657610154826100c5565b83529184019190840190600101610142565b50505080925050509250929050565b60805160601c610aad620001976000398060be52806105d85250610aad6000f3fe608060405234801561001057600080fd5b506004361061004c5760003560e01c80632a6e760314610051578063454b07f91461007a578063a0fde25e14610082578063b2e38f1614610097575b600080fd5b61006461005f36600461075c565b61009f565b60405161007191906107e4565b60405180910390f35b6100646100bc565b61009561009036600461072e565b6100e0565b005b6100646105d3565b600081600381106100ac57fe5b01546001600160a01b0316905081565b7f000000000000000000000000000000000000000000000000000000000000000081565b60006100ea6105d3565b9050806001600160a01b031663eab7775b6040518163ffffffff1660e01b815260040160206040518083038186803b15801561012557600080fd5b505afa158015610139573d6000803e3d6000fd5b505050506040513d601f19601f8201168201806040525081019061015d919061070e565b156101835760405162461bcd60e51b815260040161017a906109f0565b60405180910390fd5b604051636553690d60e11b81526000906001600160a01b0383169063caa6d21a906101b29033906004016107e4565b60206040518083038186803b1580156101ca57600080fd5b505afa1580156101de573d6000803e3d6000fd5b505050506040513d601f19601f820116820180604052508101906102029190610774565b600101905060008085600281111561021657fe5b6003811061022057fe5b01546040516370a0823160e01b81526001600160a01b039091169150849082906370a08231906102549033906004016107e4565b60206040518083038186803b15801561026c57600080fd5b505afa158015610280573d6000803e3d6000fd5b505050506040513d601f19601f820116820180604052508101906102a49190610774565b10156102c25760405162461bcd60e51b815260040161017a90610956565b604051636eb1769f60e11b815284906001600160a01b0383169063dd62ed3e906102f290339030906004016107f8565b60206040518083038186803b15801561030a57600080fd5b505afa15801561031e573d6000803e3d6000fd5b505050506040513d601f19601f820116820180604052508101906103429190610774565b10156103605760405162461bcd60e51b815260040161017a9061090c565b6040516323b872dd60e01b81526000906001600160a01b038316906323b872dd9061039390339030908a90600401610812565b602060405180830381600087803b1580156103ad57600080fd5b505af11580156103c1573d6000803e3d6000fd5b505050506040513d601f19601f820116820180604052508101906103e5919061070e565b9050806104045760405162461bcd60e51b815260040161017a906109a4565b6040805161010081019091526060908060008152602001336001600160a01b0316815260200160006001600160a01b0316815260200160006001600160a01b0316815260200185815260200160008152602001600081526020016040518060600160405280602a8152602001610a4e602a91398152508160008151811061048757fe5b602090810291909101015260408051610100810190915280600581523360208201819052604082015260600160008960028111156104c157fe5b600381106104cb57fe5b0160009054906101000a90046001600160a01b03166001600160a01b03168152602001858152602001878152602001600081526020016040518060600160405280602a8152602001610a4e602a91398152508160018151811061052a57fe5b6020908102919091010152604051635b0bf86360e11b81526001600160a01b0386169063b617f0c690610561908490600401610836565b600060405180830381600087803b15801561057b57600080fd5b505af115801561058f573d6000803e3d6000fd5b505050507f6e6f0359f5aac25b3f38bda33d180dc1829d2bb29103a4824c177dfbb850bdc8336040516105c291906107e4565b60405180910390a150505050505050565b6000807f00000000000000000000000000000000000000000000000000000000000000006001600160a01b0316633018205f6040518163ffffffff1660e01b815260040160206040518083038186803b15801561062f57600080fd5b505afa158015610643573d6000803e3d6000fd5b505050506040513d601f19601f8201168201806040525081019061066791906106e0565b9050806001600160a01b0316635c60da1b6040518163ffffffff1660e01b815260040160206040518083038186803b1580156106a257600080fd5b505afa1580156106b6573d6000803e3d6000fd5b505050506040513d601f19601f820116820180604052508101906106da91906106e0565b91505090565b6000602082840312156106f1578081fd5b81516001600160a01b0381168114610707578182fd5b9392505050565b60006020828403121561071f578081fd5b81518015158114610707578182fd5b60008060408385031215610740578081fd5b82356003811061074e578182fd5b946020939093013593505050565b60006020828403121561076d578081fd5b5035919050565b600060208284031215610785578081fd5b5051919050565b6001600160a01b03169052565b60008151808452815b818110156107be576020818501810151868301820152016107a2565b818111156107cf5782602083870101525b50601f01601f19169290920160200192915050565b6001600160a01b0391909116815260200190565b6001600160a01b0392831681529116602082015260400190565b6001600160a01b039384168152919092166020820152604081019190915260600190565b60208082528251828201819052600091906040908185019080840286018301878501865b838110156108fe57603f1989840301855281516101008151600a811061087c57fe5b85528189015161088e8a87018261078c565b508782015161089f8987018261078c565b506060808301516108b28288018261078c565b50506080828101519086015260a0808301519086015260c0808301519086015260e0918201519185018190526108ea81860183610799565b96890196945050509086019060010161085a565b509098975050505050505050565b6020808252602a908201527f5661756c74734d616e616765723a204e6565647320746f2063616c6c206170706040820152691c9bdd9948199a5c9cdd60b21b606082015260800190565b6020808252602e908201527f5661756c74734d616e616765723a20496e73756666696369656e7420636f6c6c60408201526d61746572616c2062616c616e636560901b606082015260800190565b6020808252602c908201527f5661756c74734d616e616765723a204661696c6564207472616e73666572696e60408201526b19c818dbdb1b185d195c985b60a21b606082015260800190565b6020808252603b908201527f5661756c74734d616e616765723a20546865204f70796e20563220737973746560408201527f6d2069732063757272656e746c792066756c6c7920706175736564000000000060608201526080019056fe307830303030303030303030303030303030303030303030303030303030303030303030303030303030a2646970667358221220c925c995f00fc237e1b280e058e43a30966fdb0c2d6f12c5a073d752612132cd64736f6c63430007030033",
  "immutableReferences": {
    "55": [
      {
        "length": 32,
        "start": 190
      },
      {
        "length": 32,
        "start": 1496
      }
    ]
  },
  "source": "// SPDX-License-Identifier: MIT\npragma solidity ^0.7.0;\n\npragma experimental ABIEncoderV2;\n\nimport {IERC20} from \"@openzeppelin/contracts/token/ERC20/IERC20.sol\";\n\nimport \"./OpynV2Helpers.sol\";\nimport {IController, Actions} from \"./interfaces/IController.sol\";\n\ncontract VaultsManager is OpynV2Helpers {\n    address[3] public validCollateral;\n\n    enum Collateral {USDC, cUSDC, WETH}\n\n    event CreatedVault(address owner);\n\n    constructor(address _OpynV2AddressBook, address[3] memory _validCollateral)\n        OpynV2Helpers(_OpynV2AddressBook)\n    {\n        validCollateral = _validCollateral;\n    }\n\n    function createCollateralizedVault(\n        Collateral _assetToDeposit,\n        uint256 _amount\n    ) public {\n        IController controller = IController(getOpynV2Controller());\n\n        require(\n            !controller.systemFullyPaused(),\n            \"VaultsManager: The Opyn V2 system is currently fully paused\"\n        );\n\n        uint256 newVaultId = controller.getAccountVaultCounter(msg.sender) + 1;\n\n        IERC20 collateral = IERC20(validCollateral[uint256(_assetToDeposit)]);\n\n        require(\n            collateral.balanceOf(msg.sender) >= _amount,\n            \"VaultsManager: Insufficient collateral balance\"\n        );\n        require(\n            collateral.allowance(msg.sender, address(this)) >= _amount,\n            \"VaultsManager: Needs to call approve first\"\n        );\n\n        bool transferSuccess = collateral.transferFrom(\n            msg.sender,\n            address(this),\n            _amount\n        );\n        require(\n            transferSuccess,\n            \"VaultsManager: Failed transfering collateral\"\n        );\n\n        Actions.ActionArgs[] memory actions;\n\n        actions[0] = Actions.ActionArgs({\n            actionType: Actions.ActionType.OpenVault,\n            owner: msg.sender,\n            secondAddress: address(0),\n            asset: address(0),\n            vaultId: newVaultId,\n            amount: 0,\n            index: 0,\n            data: \"0x0000000000000000000000000000000000000000\"\n        });\n\n        actions[1] = Actions.ActionArgs({\n            actionType: Actions.ActionType.DepositCollateral,\n            owner: msg.sender,\n            secondAddress: msg.sender,\n            asset: validCollateral[uint256(_assetToDeposit)],\n            vaultId: newVaultId,\n            amount: _amount,\n            index: 0,\n            data: \"0x0000000000000000000000000000000000000000\"\n        });\n\n        controller.operate(actions);\n\n        emit CreatedVault(msg.sender);\n    }\n}\n",
  "sourcePath": "/home/andre/src/repos/github/PermanentLoss/permanentloss/contracts/contracts/VaultsManager.sol",
  "compiler": {
    "name": "solc",
    "version": "0.7.3+commit.9bfce1f6.Emscripten.clang"
  },
  "schemaVersion": "3.3.0",
  "updatedAt": "2020-10-16T02:57:01.551Z",
  "devdoc": {
    "kind": "dev",
    "methods": {
      "getOpynV2Controller()": {
        "details": "Opyn v2 uses proxies to deploy upgradable contracts and this is why we can not return OpynV2AddressBook.getController() directly",
        "returns": {
          "_0": "Address of the current Controller implementation contract"
        }
      }
    },
    "version": 1
  },
  "userdoc": {
    "kind": "user",
    "methods": {
      "OpynV2AddressBook()": {
        "notice": "Provides addresses for all modules in Opyn v2"
      },
      "getOpynV2Controller()": {
        "notice": "Get the address of the contract that controls the Gamma Protocol (Opyn v2) and the interaction of all sub contracts in the current network"
      }
    },
    "version": 1
  }
}